{
  "contractName": "Authentication",
  "abi": [
    {
      "constant": true,
      "inputs": [
        {
          "name": "",
          "type": "bytes32"
        }
      ],
      "name": "constituencyDict",
      "outputs": [
        {
          "name": "",
          "type": "bytes32"
        }
      ],
      "payable": false,
      "stateMutability": "view",
      "type": "function"
    },
    {
      "constant": true,
      "inputs": [
        {
          "name": "",
          "type": "uint256"
        }
      ],
      "name": "voterList",
      "outputs": [
        {
          "name": "",
          "type": "bytes32"
        }
      ],
      "payable": false,
      "stateMutability": "view",
      "type": "function"
    },
    {
      "constant": true,
      "inputs": [],
      "name": "voting",
      "outputs": [
        {
          "name": "",
          "type": "address"
        }
      ],
      "payable": false,
      "stateMutability": "view",
      "type": "function"
    },
    {
      "inputs": [
        {
          "name": "myList",
          "type": "bytes32[]"
        },
        {
          "name": "constituencies",
          "type": "bytes32[]"
        },
        {
          "name": "addr",
          "type": "address"
        }
      ],
      "payable": false,
      "stateMutability": "nonpayable",
      "type": "constructor"
    },
    {
      "constant": true,
      "inputs": [
        {
          "name": "voter",
          "type": "bytes32"
        }
      ],
      "name": "isVoterExist",
      "outputs": [
        {
          "name": "",
          "type": "bool"
        },
        {
          "name": "",
          "type": "string"
        }
      ],
      "payable": false,
      "stateMutability": "view",
      "type": "function"
    },
    {
      "constant": false,
      "inputs": [
        {
          "name": "candidate",
          "type": "bytes32"
        },
        {
          "name": "voter",
          "type": "bytes32"
        }
      ],
      "name": "checkConstituency",
      "outputs": [
        {
          "name": "",
          "type": "bool"
        },
        {
          "name": "",
          "type": "string"
        }
      ],
      "payable": false,
      "stateMutability": "nonpayable",
      "type": "function"
    },
    {
      "constant": false,
      "inputs": [
        {
          "name": "candidate",
          "type": "bytes32"
        },
        {
          "name": "voter",
          "type": "bytes32"
        }
      ],
      "name": "validVoter",
      "outputs": [
        {
          "name": "",
          "type": "bool"
        },
        {
          "name": "",
          "type": "string"
        }
      ],
      "payable": false,
      "stateMutability": "nonpayable",
      "type": "function"
    },
    {
      "constant": false,
      "inputs": [
        {
          "name": "candidate",
          "type": "bytes32"
        },
        {
          "name": "voter",
          "type": "bytes32"
        }
      ],
      "name": "isAuthentic",
      "outputs": [
        {
          "name": "",
          "type": "bool"
        },
        {
          "name": "",
          "type": "string"
        }
      ],
      "payable": false,
      "stateMutability": "nonpayable",
      "type": "function"
    },
    {
      "constant": false,
      "inputs": [
        {
          "name": "voter",
          "type": "bytes32"
        },
        {
          "name": "constituency",
          "type": "bytes32"
        }
      ],
      "name": "registerVoter",
      "outputs": [
        {
          "name": "",
          "type": "bool"
        },
        {
          "name": "",
          "type": "string"
        }
      ],
      "payable": false,
      "stateMutability": "nonpayable",
      "type": "function"
    }
  ],
  "bytecode": "0x608060405234801561001057600080fd5b5060405162000cf738038062000cf78339810180604052606081101561003557600080fd5b81019080805164010000000081111561004d57600080fd5b8281019050602081018481111561006357600080fd5b815185602082028301116401000000008211171561008057600080fd5b5050929190602001805164010000000081111561009c57600080fd5b828101905060208101848111156100b257600080fd5b81518560208202830111640100000000821117156100cf57600080fd5b50509291906020018051906020019092919050505082600190805190602001906100fa9291906101a6565b5060008090505b60018054905081101561015d5782818151811061011a57fe5b6020026020010151600260006001848154811061013357fe5b90600052602060002001548152602001908152602001600020819055508080600101915050610101565b50806000806101000a81548173ffffffffffffffffffffffffffffffffffffffff021916908373ffffffffffffffffffffffffffffffffffffffff160217905550505050610218565b8280548282559060005260206000209081019282156101e2579160200282015b828111156101e15782518255916020019190600101906101c6565b5b5090506101ef91906101f3565b5090565b61021591905b808211156102115760008160009055506001016101f9565b5090565b90565b610acf80620002286000396000f3fe608060405234801561001057600080fd5b50600436106100885760003560e01c806359b80d1f1161005b57806359b80d1f1461028957806393bf227414610345578063fbc1a33414610401578063fce1ccca146104b357610088565b80631170440b1461008d57806328d5bac11461014957806350e2e8af1461018b57806352b21390146101cd575b600080fd5b6100c3600480360360408110156100a357600080fd5b8101908080359060200190929190803590602001909291905050506104fd565b604051808315151515815260200180602001828103825283818151815260200191508051906020019080838360005b8381101561010d5780820151818401526020810190506100f2565b50505050905090810190601f16801561013a5780820380516001836020036101000a031916815260200191505b50935050505060405180910390f35b6101756004803603602081101561015f57600080fd5b8101908080359060200190929190505050610706565b6040518082815260200191505060405180910390f35b6101b7600480360360208110156101a157600080fd5b810190808035906020019092919050505061071e565b6040518082815260200191505060405180910390f35b610203600480360360408110156101e357600080fd5b81019080803590602001909291908035906020019092919050505061073f565b604051808315151515815260200180602001828103825283818151815260200191508051906020019080838360005b8381101561024d578082015181840152602081019050610232565b50505050905090810190601f16801561027a5780820380516001836020036101000a031916815260200191505b50935050505060405180910390f35b6102bf6004803603604081101561029f57600080fd5b810190808035906020019092919080359060200190929190505050610855565b604051808315151515815260200180602001828103825283818151815260200191508051906020019080838360005b838110156103095780820151818401526020810190506102ee565b50505050905090810190601f1680156103365780820380516001836020036101000a031916815260200191505b50935050505060405180910390f35b61037b6004803603604081101561035b57600080fd5b810190808035906020019092919080359060200190929190505050610904565b604051808315151515815260200180602001828103825283818151815260200191508051906020019080838360005b838110156103c55780820151818401526020810190506103aa565b50505050905090810190601f1680156103f25780820380516001836020036101000a031916815260200191505b50935050505060405180910390f35b61042d6004803603602081101561041757600080fd5b810190808035906020019092919050505061097f565b604051808315151515815260200180602001828103825283818151815260200191508051906020019080838360005b8381101561047757808201518184015260208101905061045c565b50505050905090810190601f1680156104a45780820380516001836020036101000a031916815260200191505b50935050505060405180910390f35b6104bb610a47565b604051808273ffffffffffffffffffffffffffffffffffffffff1673ffffffffffffffffffffffffffffffffffffffff16815260200191505060405180910390f35b600060606000806000809054906101000a900473ffffffffffffffffffffffffffffffffffffffff1673ffffffffffffffffffffffffffffffffffffffff166337e19124876040518263ffffffff1660e01b8152600401808281526020019150506040805180830381600087803b15801561057757600080fd5b505af115801561058b573d6000803e3d6000fd5b505050506040513d60408110156105a157600080fd5b81019080805190602001909291908051906020019092919050505080925081935050506000151582151514156106145760006040518060400160405280601981526020017f43616e64696461746520646f6573206e6f742065786973742e000000000000008152509350935050506106ff565b600060606106218761097f565b809250819350505060001515821515141561067b5760006040518060400160405280601581526020017f566f74657220646f6573206e6f742065786973742e000000000000000000000081525095509550505050506106ff565b60026000888152602001908152602001600020548314156106db5760016040518060400160405280600981526020017f756e646566696e6564000000000000000000000000000000000000000000000081525095509550505050506106ff565b6000604051806060016040528060378152602001610a6d6037913995509550505050505b9250929050565b60026020528060005260406000206000915090505481565b6001818154811061072b57fe5b906000526020600020016000915090505481565b60006060600061074e8561097f565b508091505060001515811515146107cd576040517f08c379a00000000000000000000000000000000000000000000000000000000081526004018080602001828103825260148152602001807f566f74657220616c72656164792065786973747300000000000000000000000081525060200191505060405180910390fd5b600185908060018154018082558091505090600182039060005260206000200160009091929091909150555083600260008781526020019081526020016000208190555060016040518060400160405280600781526020017f737563636573730000000000000000000000000000000000000000000000000081525092509250509250929050565b600060606000806060806108688761097f565b809350819550505061087a88886104fd565b809250819450505060001515841515141561089f5760008295509550505050506108fd565b6000151583151514156108bc5760008195509550505050506108fd565b60016040518060400160405280600781526020017f737563636573730000000000000000000000000000000000000000000000000081525095509550505050505b9250929050565b60006060600060606109168686610855565b809250819350505060001515821515141561093957600081935093505050610978565b60016040518060400160405280600781526020017f73756363657373000000000000000000000000000000000000000000000000008152509350935050505b9250929050565b6000606060008090505b600180549050811015610a045783600182815481106109a457fe5b906000526020600020015414156109f75760016040518060400160405280600781526020017f73756363657373000000000000000000000000000000000000000000000000008152509250925050610a42565b8080600101915050610989565b5060006040518060400160405280601481526020017f566f74657220646f6573206e6f74206578697374000000000000000000000000815250915091505b915091565b6000809054906101000a900473ffffffffffffffffffffffffffffffffffffffff168156fe43616e64696461746520616e6420566f7465722062656c6f6e6720746f20646966666572656e7420636f6e7374697475656e636965732ea165627a7a72305820de88d5d5c403c3f465cb68616ae1374d208a76fa26c25ec69b9af8050253f3120029",
  "source": "pragma solidity >=0.4.21 <0.6.0;\n// We have to specify what version of compiler this code will compile with\n\ncontract Voting {\n\n  // This function returns the total votes a candidate has received so far\n  function totalVotesFor(bytes32 candidate) public returns (uint8,bool);\n\n  // This function increments the vote count for the specified candidate. This\n  // is equivalent to casting a vote\n  function voteForCandidate(bytes32 candidate) public returns (bool,string memory);\n\n  function getCandidateConstituency(bytes32 candidate) public returns (bool,bytes32);\n\n  function test() public returns (bool,string memory);\n\n  function validCandidate(bytes32 candidate) public returns (bool);\n\n  function bytes32ToString(bytes32 x) public view returns (string memory);\n}\n\ncontract Authentication {\n  /* mapping field below is equivalent to an associative array or hash.\n  The key of the mapping is candidate name stored as type bytes32 and value is\n  an unsigned integer to store the vote count\n  */\n\n  Voting public voting;\n\n  /* Solidity doesn't let you pass in an array of strings in the constructor (yet).\n  We will use an array of bytes32 instead to store the list of candidates\n  */\n\n  bytes32[] public voterList;\n  mapping (bytes32 => bytes32) public constituencyDict;\n\n  /* This is the constructor which will be called once when you\n  deploy the contract to the blockchain. When we deploy the contract,\n  we will pass an array of candidates who will be contesting in the election\n  */\n  constructor(bytes32[] memory myList, bytes32[] memory constituencies, address addr) public {\n    voterList = myList;\n    for(uint i = 0; i < voterList.length; i++) {\n      constituencyDict[voterList[i]] = constituencies[i];\n    }\n    voting = Voting(addr);\n  }\n\n  function isVoterExist(bytes32 voter) public view returns (bool,string memory) {\n    for(uint i = 0; i < voterList.length; i++) {\n      if (voterList[i] == voter) return (true, \"success\");\n    }\n    return (false, \"Voter does not exist\");\n  }\n\n  function checkConstituency(bytes32 candidate, bytes32 voter) public returns (bool, string memory) {\n    bool candidateConstituencyBool;\n    bytes32 candidateConstituency;\n    (candidateConstituencyBool,candidateConstituency) = voting.getCandidateConstituency(candidate);\n    if(candidateConstituencyBool == false) return (false, \"Candidate does not exist.\");\n    bool isVoterExistBool;\n    string memory isVoterExistString;\n    (isVoterExistBool,isVoterExistString) = isVoterExist(voter);\n    if(isVoterExistBool == false) return (false, \"Voter does not exist.\");\n    if(candidateConstituency == constituencyDict[voter]) return (true,\"undefined\");\n    return (false, \"Candidate and Voter belong to different constituencies.\");\n  }\n\n  // This function increments the vote count for the specified candidate. This\n  // is equivalent to casting a vote\n  function validVoter(bytes32 candidate, bytes32 voter) public returns (bool,string memory) {\n    bool isVoterExistBool;\n    bool checkConstituencyBool;\n    string memory isVoterExistString;\n    string memory checkConstituencyString;\n    (isVoterExistBool,isVoterExistString) = isVoterExist(voter);\n    (checkConstituencyBool, checkConstituencyString) = checkConstituency(candidate, voter);\n    if(isVoterExistBool == false) return (false, isVoterExistString);\n    if(checkConstituencyBool == false) return (false, checkConstituencyString);\n    return (true, \"success\");\n  }\n\n  // This is the main function which checks whether a voter can vote for a candidate or not\n  function isAuthentic(bytes32 candidate, bytes32 voter) public returns (bool, string memory) {\n    bool validVoterBool;\n    string memory validVoterString;\n    (validVoterBool,validVoterString) = validVoter(candidate, voter);\n    if(validVoterBool == false) return (false, validVoterString);\n    return (true, \"success\");\n  }\n\n  // This function registers a voter\n  function registerVoter(bytes32 voter, bytes32 constituency) public returns (bool, string memory) {\n    bool isVoterExistBool;\n    (isVoterExistBool,) = isVoterExist(voter);\n    require(isVoterExistBool == false, \"Voter already exists\");\n    voterList.push(voter);\n    constituencyDict[voter] = constituency;\n    return (true, \"success\");\n  }\n}\n",
  "sourcePath": "/Users/alphadose/cfd/EnigmaChain/contracts/Authentication.sol",
  "compiler": {
    "name": "solc",
    "version": "0.5.8+commit.23d335f2.Emscripten.clang"
  },
  "schemaVersion": "3.0.11",
  "updatedAt": "2019-08-10T16:29:54.402Z",
  "devdoc": {
    "methods": {}
  },
  "userdoc": {
    "methods": {}
  }
}