{
  "contractName": "Voting",
  "abi": [
    {
      "constant": true,
      "inputs": [
        {
          "name": "",
          "type": "bytes32"
        }
      ],
      "name": "constituencyDict",
      "outputs": [
        {
          "name": "",
          "type": "bytes32"
        }
      ],
      "payable": false,
      "stateMutability": "view",
      "type": "function"
    },
    {
      "constant": true,
      "inputs": [
        {
          "name": "",
          "type": "bytes32"
        }
      ],
      "name": "votesReceived",
      "outputs": [
        {
          "name": "",
          "type": "uint8"
        }
      ],
      "payable": false,
      "stateMutability": "view",
      "type": "function"
    },
    {
      "constant": true,
      "inputs": [
        {
          "name": "",
          "type": "uint256"
        }
      ],
      "name": "candidateList",
      "outputs": [
        {
          "name": "",
          "type": "bytes32"
        }
      ],
      "payable": false,
      "stateMutability": "view",
      "type": "function"
    },
    {
      "inputs": [
        {
          "name": "candidateNames",
          "type": "bytes32[]"
        },
        {
          "name": "constituencies",
          "type": "bytes32[]"
        }
      ],
      "payable": false,
      "stateMutability": "nonpayable",
      "type": "constructor"
    },
    {
      "constant": true,
      "inputs": [
        {
          "name": "candidate",
          "type": "bytes32"
        }
      ],
      "name": "totalVotesFor",
      "outputs": [
        {
          "name": "",
          "type": "uint8"
        },
        {
          "name": "",
          "type": "bool"
        }
      ],
      "payable": false,
      "stateMutability": "view",
      "type": "function"
    },
    {
      "constant": false,
      "inputs": [
        {
          "name": "candidate",
          "type": "bytes32"
        }
      ],
      "name": "voteForCandidate",
      "outputs": [
        {
          "name": "",
          "type": "bool"
        },
        {
          "name": "",
          "type": "string"
        }
      ],
      "payable": false,
      "stateMutability": "nonpayable",
      "type": "function"
    },
    {
      "constant": true,
      "inputs": [
        {
          "name": "candidate",
          "type": "bytes32"
        }
      ],
      "name": "getCandidateConstituency",
      "outputs": [
        {
          "name": "",
          "type": "bool"
        },
        {
          "name": "",
          "type": "bytes32"
        }
      ],
      "payable": false,
      "stateMutability": "view",
      "type": "function"
    },
    {
      "constant": true,
      "inputs": [
        {
          "name": "candidate",
          "type": "bytes32"
        }
      ],
      "name": "validCandidate",
      "outputs": [
        {
          "name": "",
          "type": "bool"
        },
        {
          "name": "",
          "type": "string"
        }
      ],
      "payable": false,
      "stateMutability": "view",
      "type": "function"
    },
    {
      "constant": false,
      "inputs": [
        {
          "name": "candidate",
          "type": "bytes32"
        },
        {
          "name": "constituency",
          "type": "bytes32"
        }
      ],
      "name": "registerCandidate",
      "outputs": [
        {
          "name": "",
          "type": "bool"
        },
        {
          "name": "",
          "type": "string"
        }
      ],
      "payable": false,
      "stateMutability": "nonpayable",
      "type": "function"
    }
  ],
  "bytecode": "0x608060405234801561001057600080fd5b50604051610a51380380610a518339810180604052604081101561003357600080fd5b81019080805164010000000081111561004b57600080fd5b8281019050602081018481111561006157600080fd5b815185602082028301116401000000008211171561007e57600080fd5b5050929190602001805164010000000081111561009a57600080fd5b828101905060208101848111156100b057600080fd5b81518560208202830111640100000000821117156100cd57600080fd5b505092919050505081600190805190602001906100eb92919061014e565b5060008090505b82518110156101465781818151811061010757fe5b60200260200101516002600085848151811061011f57fe5b602002602001015181526020019081526020016000208190555080806001019150506100f2565b5050506101c0565b82805482825590600052602060002090810192821561018a579160200282015b8281111561018957825182559160200191906001019061016e565b5b509050610197919061019b565b5090565b6101bd91905b808211156101b95760008160009055506001016101a1565b5090565b90565b610882806101cf6000396000f3fe608060405234801561001057600080fd5b50600436106100885760003560e01c806356c68f8b1161005b57806356c68f8b146102215780637021939f146102dd578063b13c744b14610325578063cc9ab2671461036757610088565b806328d5bac11461008d5780632f265cf7146100cf57806337e1912414610122578063392e66781461016f575b600080fd5b6100b9600480360360208110156100a357600080fd5b8101908080359060200190929190505050610419565b6040518082815260200191505060405180910390f35b6100fb600480360360208110156100e557600080fd5b8101908080359060200190929190505050610431565b604051808360ff1660ff168152602001821515151581526020019250505060405180910390f35b61014e6004803603602081101561013857600080fd5b8101908080359060200190929190505050610495565b60405180831515151581526020018281526020019250505060405180910390f35b61019b6004803603602081101561018557600080fd5b81019080803590602001909291905050506104ed565b604051808315151515815260200180602001828103825283818151815260200191508051906020019080838360005b838110156101e55780820151818401526020810190506101ca565b50505050905090810190601f1680156102125780820380516001836020036101000a031916815260200191505b50935050505060405180910390f35b6102576004803603604081101561023757600080fd5b8101908080359060200190929190803590602001909291905050506105b5565b604051808315151515815260200180602001828103825283818151815260200191508051906020019080838360005b838110156102a1578082015181840152602081019050610286565b50505050905090810190601f1680156102ce5780820380516001836020036101000a031916815260200191505b50935050505060405180910390f35b610309600480360360208110156102f357600080fd5b81019080803590602001909291905050506106cb565b604051808260ff1660ff16815260200191505060405180910390f35b6103516004803603602081101561033b57600080fd5b81019080803590602001909291905050506106eb565b6040518082815260200191505060405180910390f35b6103936004803603602081101561037d57600080fd5b810190808035906020019092919050505061070c565b604051808315151515815260200180602001828103825283818151815260200191508051906020019080838360005b838110156103dd5780820151818401526020810190506103c2565b50505050905090810190601f16801561040a5780820380516001836020036101000a031916815260200191505b50935050505060405180910390f35b60026020528060005260406000206000915090505481565b60008060006060610441856104ed565b809250819350505060001515821515141561046757600080819150935093505050610490565b60008086815260200190815260200160002060009054906101000a900460ff1660019350935050505b915091565b60008060008060606104a6866104ed565b80925081935050506000151582151514156104ca57600083945094505050506104e8565b60016002600088815260200190815260200160002054945094505050505b915091565b6000606060008090505b60018054905081101561057257836001828154811061051257fe5b906000526020600020015414156105655760016040518060400160405280600781526020017f737563636573730000000000000000000000000000000000000000000000000081525092509250506105b0565b80806001019150506104f7565b5060006040518060400160405280601881526020017f43616e64696461746520646f6573206e6f742065786973740000000000000000815250915091505b915091565b6000606060006105c4856104ed565b50809150506000151581151514610643576040517f08c379a00000000000000000000000000000000000000000000000000000000081526004018080602001828103825260188152602001807f43616e64696461746520616c726561647920657869737473000000000000000081525060200191505060405180910390fd5b600185908060018154018082558091505090600182039060005260206000200160009091929091909150555083600260008781526020019081526020016000208190555060016040518060400160405280600781526020017f737563636573730000000000000000000000000000000000000000000000000081525092509250509250929050565b60006020528060005260406000206000915054906101000a900460ff1681565b600181815481106106f857fe5b906000526020600020016000915090505481565b600060606000606061071d856104ed565b8092508193505050600115158215151481906107d4576040517f08c379a00000000000000000000000000000000000000000000000000000000081526004018080602001828103825283818151815260200191508051906020019080838360005b8381101561079957808201518184015260208101905061077e565b50505050905090810190601f1680156107c65780820380516001836020036101000a031916815260200191505b509250505060405180910390fd5b50600160008087815260200190815260200160002060008282829054906101000a900460ff160192506101000a81548160ff021916908360ff16021790555060016040518060400160405280600781526020017f737563636573730000000000000000000000000000000000000000000000000081525093509350505091509156fea165627a7a72305820ce3545864d17260f093c995e0b46ac1606f947fca99ec8959196cea8e2e852cf0029",
  "source": "pragma solidity >=0.4.21 <0.6.0;\n// We have to specify what version of compiler this code will compile with\n\ncontract Voting {\n  /* mapping field below is equivalent to an associative array or hash.\n  The key of the mapping is candidate name stored as type bytes32 and value is\n  an unsigned integer to store the vote count\n  */\n\n  mapping (bytes32 => uint8) public votesReceived;\n\n  /* Solidity doesn't let you pass in an array of strings in the constructor (yet).\n  We will use an array of bytes32 instead to store the list of candidates\n  */\n\n  bytes32[] public candidateList;\n  mapping (bytes32 => bytes32) public constituencyDict;\n\n  /* This is the constructor which will be called once when you\n  deploy the contract to the blockchain. When we deploy the contract,\n  we will pass an array of candidates who will be contesting in the election\n  */\n  constructor(bytes32[] memory candidateNames, bytes32[] memory constituencies) public {\n    candidateList = candidateNames;\n    for(uint i = 0; i < candidateNames.length; i++) {\n      constituencyDict[candidateNames[i]] = constituencies[i];\n    }\n  }\n\n  // This function returns the total votes a candidate has received so far\n  function totalVotesFor(bytes32 candidate) public view returns (uint8,bool) {\n    bool validCandidateBool;\n    string memory validCandidateString;\n    (validCandidateBool,validCandidateString) = validCandidate(candidate);\n    if (validCandidateBool == false) return (0, false);\n    return (votesReceived[candidate],true);\n  }\n\n  /* This function increments the vote count for the specified candidate. This\n  is equivalent to casting a vote\n  */\n  function voteForCandidate(bytes32 candidate) public returns (bool,string memory) {\n    bool validCandidateBool;\n    string memory validCandidateString;\n    (validCandidateBool,validCandidateString) = validCandidate(candidate);\n    require(validCandidateBool == true, validCandidateString);\n    votesReceived[candidate] += 1;\n    return (true,\"success\");\n  }\n\n  function getCandidateConstituency(bytes32 candidate) public view returns (bool,bytes32) {\n    bytes32 my_null;\n    bool validCandidateBool;\n    string memory validCandidateString;\n    (validCandidateBool,validCandidateString) = validCandidate(candidate);\n    if (validCandidateBool == false) return (false, my_null);\n    return (true,constituencyDict[candidate]);\n  }\n\n  function validCandidate(bytes32 candidate) public view returns (bool,string memory) {\n    for(uint i = 0; i < candidateList.length; i++) {\n      if (candidateList[i] == candidate) return (true, \"success\");\n    }\n    return (false, \"Candidate does not exist\");\n  }\n\n  // This function registers a candidate\n  function registerCandidate(bytes32 candidate, bytes32 constituency) public returns (bool,string memory) {\n    bool validCandidateBool;\n    (validCandidateBool,) = validCandidate(candidate);\n    require(validCandidateBool == false, \"Candidate already exists\");\n    candidateList.push(candidate);\n    constituencyDict[candidate] = constituency;\n    return (true, \"success\");\n  }\n}",
  "sourcePath": "/Users/alphadose/cfd/EnigmaChain/contracts/Voting.sol",
  "compiler": {
    "name": "solc",
    "version": "0.5.8+commit.23d335f2.Emscripten.clang"
  },
  "schemaVersion": "3.0.11",
  "updatedAt": "2019-08-10T13:51:36.679Z",
  "devdoc": {
    "methods": {}
  },
  "userdoc": {
    "methods": {}
  }
}